:100000000C9434000C9451000C9451000C94510049
:100010000C9451000C9451000C9451000C9451001C
:100020000C9451000C9451000C9451000C9451000C
:100030000C9451000C949C010C9451000C945100B0
:100040000C9451000C9451000C9472020C94A00278
:100050000C9451000C94B1010C9451000C9451007B
:100060000C9451000C94510011241FBECFEFD8E026
:10007000DEBFCDBF11E0A0E0B1E0ECE7F6E002C0EA
:1000800005900D92A234B107D9F721E0A2E4B1E0C6
:1000900001C01D92A738B207E1F70E9448010C94F5
:1000A0003C030C94000085B1826085B985E08A9597
:1000B000F1F7000085B18D7F85B90895CF93C82FE2
:1000C000662321F085B1816085B903C085B18E7F3B
:1000D00085B98AB180618AB98AB180628AB98AB1E8
:1000E00080648AB98AB180688AB98BB18F778BB9FD
:1000F0008BB18F7B8BB98BB18F7D8BB98BB18F7EA1
:100100008BB9CC231CF48BB180688BB9C6FF03C0BC
:100110008BB180648BB9C5FF03C08BB180628BB992
:10012000C4FF03C08BB180618BB90E9453008BB1B7
:100130008F778BB98BB18F7B8BB98BB18F7D8BB95F
:100140008BB18F7E8BB9C3FF03C08BB180688BB935
:10015000C2FF03C08BB180648BB9C1FF03C08BB1F8
:1001600080628BB9C0FF03C08BB180618BB90E94E4
:1001700053008BB180618BB98BB180628BB98BB12D
:1001800080648BB98BB180688BB987EB9BE001975A
:10019000F1F700C00000CF91089560E00E945E007A
:1001A0000895611104C080580E94CD0008958054C4
:1001B0000E94CD00089581E00E94CD00089561E085
:1001C0000E945E000895CF93DF93FC0103C00E945C
:1001D000DF00FE01EF01219680818111F8CFDF91D0
:1001E000CF910895CF93C82F84B1816084B98AB12B
:1001F00080628AB984B1826084B98AB180618AB927
:100200008AB180628AB98AB180648AB98AB1806809
:100210008AB98FEF99EF0197F1F700C000008BB119
:1002200080628BB98BB180618BB90E9453008FE1E2
:100230009EE40197F1F700C000000E9453008FEF89
:1002400090E00197F1F700C000000E9453008FEF8B
:1002500090E00197F1F700C000008BB18F7E8BB961
:100260000E9453008FEF90E00197F1F700C000006B
:1002700088E20E94CD0088E00E94CD000E94DB0051
:1002800086E00E94CD008C2F0E94CD00CF91089572
:100290008CE00E94F20060E081E00E94D10080E0EA
:1002A00091E00E94E30061E083E00E94D10087E0DA
:1002B00091E00E94E30060E088E00E94D1008CE0C1
:1002C00091E00E94E30060E08DE00E94D1008EE0AA
:1002D00091E00E94E30061E088E00E94D10080E1AB
:1002E00091E00E94E300ECE7F0E080818F7780836B
:1002F0008081806480838081807F8083EAE7F0E072
:10030000808180688083808188608083808187602D
:100310008083E1E8F0E080818B7F8083808183604F
:100320008083EFE6F0E080818160808387E690E063
:100330000E94CA027894FFCF1F920F920FB60F92BD
:1003400011248F93EF93FF93EAE7F0E080818064BC
:100350008083FF91EF918F910F900FBE0F901F90B0
:1003600018951F920F920FB60F9211240F931F939F
:100370002F933F934F935F936F937F938F939F93AD
:10038000AF93BF93EF93FF93CF93DF9300D000D051
:10039000CDB7DEB780E390E39A8389839C838B8318
:1003A00000917800109179004AE0BE016F5F7F4FA5
:1003B000C8010E94070360E088E00E94D1008EE13E
:1003C00091E00E94E30060E088E00E94D100CE014D
:1003D00001960E94E30082E191E00E94FA02CE01C0
:1003E00001960E94FA028AE191E00E94FA0240E13D
:1003F000BE016F5F7F4FC8010E94070360E08DE080
:100400000E94D1008FE191E00E94E30060E08DE066
:100410000E94D100CE0101960E94E300CE01019618
:100420000E94FA028AE191E00E94FA0261E088E00B
:100430000E94D1008CE191E00E94E30061E088E03D
:100440000E94D1000035110528F483E291E00E945A
:10045000E3002FC0C801815591098539910528F421
:1004600089E291E00E94E30024C0C801875E9109FF
:100470008F39910528F48CE291E00E94E30019C0C5
:10048000C80187589140813D910528F481E391E0AE
:100490000E94E3000EC0095512400B32114028F4AF
:1004A00086E391E00E94E30004C08DE391E00E94A6
:1004B000E3000F900F900F900F90DF91CF91FF917D
:1004C000EF91BF91AF919F918F917F916F915F91CC
:1004D0004F913F912F911F910F910F900FBE0F9051
:1004E0001F9018951F920F920FB60F9211242F9301
:1004F0008F939F93EF93FF938091C0002091C6004C
:100500008C71E0914401EF5FEF7190914301E91725
:1005100039F0E0934401F0E0E95BFE4F208301C035
:1005200082E090914201892B80934201FF91EF91EB
:100530009F918F912F910F900FBE0F901F90189544
:100540001F920F920FB60F9211248F939F93EF93E8
:10055000FF939091460180914501981769F0E091D1
:100560004501EF5FEF71E0934501F0E0E959FE4F7F
:1005700080818093C60005C0E1ECF0E080818F7D32
:100580008083FF91EF919F918F910F900FBE0F90FD
:100590001F90189510924601109245011092440147
:1005A00010924301282F392F33231CF422E020938B
:1005B000C00090789093C5008093C40088E9809330
:1005C000C10086E08093C2000895209146012F5F0C
:1005D0002F71909145012917E1F3E22FF0E0E959DD
:1005E000FE4F808320934601E1ECF0E08081806241
:1005F00080830895CF93DF93EC0103C021960E947E
:10060000E50288818111FACFDF91CF910895BB2750
:100610004A3031F4992322F4BDE2909581959F4FA1
:100620000C941303BB27FB015527AA27880F991F9A
:10063000AA1FA41710F0A41B83955051B9F7A05D11
:10064000AA3308F0A95DA193009779F7B111B1938E
:100650001192CB010C942C03DC01FC01672F7191EA
:100660007723E1F7329704C07C916D937083629198
:0C067000AE17BF07C8F30895F894FFCF41
:10067C0076616C75653A006B65793A0061006200D1
:10068C0063001B5B343B33326D000A0020202020BA
:10069C00202000524947485400555000444F574EB3
:1006AC00004C4546540053454C454354004E4F4E68
:0206BC004500F7
:00000001FF
