:100000000C9434000C943E000C943E000C943E0082
:100010000C943E000C943E000C943E000C943E0068
:100020000C943E000C943E000C943E000C943E0058
:100030000C943E000C943E000C943E000C943E0048
:100040000C943E000C943E000C943E000C943E0038
:100050000C943E000C943E000C943E000C943E0028
:100060000C943E000C943E0011241FBECFEFD8E04C
:10007000DEBFCDBF0E9440000C9487000C940000AE
:1000800084B1806284B985B18F7D85B987B1816083
:1000900087B988B18170809588B98AB18AB98BB1E6
:1000A00080688BB94F99FECF2FEF39E648E1215098
:1000B00030404040E1F700C0000085B190E2892760
:1000C00085B98FEF29E638E1815020403040E1F7D3
:1000D00000C0000028B181E0282728B94FEF29E6A9
:1000E00038E1415020403040E1F700C0000025B128
:1000F000922795B94FEF99E628E141509040204072
:10010000E1F700C0000098B1892788B9CBCFF894F7
:02011000FFCF1F
:00000001FF
