:100000000C9434000C9451000C9451000C94510049
:100010000C9451000C9451000C9451000C9451001C
:100020000C9451000C9451000C9451000C9451000C
:100030000C9451000C94A2010C9451000C945100AA
:100040000C9466020C9451000C9451000C945100D5
:100050000C9451000C9451000C9451000C945100DC
:100060000C9451000C94510011241FBECFEFD8E026
:10007000DEBFCDBF11E0A0E0B1E0E8EEF5E002C0E8
:1000800005900D92AC34B107D9F721E0ACE4B1E0B2
:1000900001C01D92A535B207E1F70E944C010C94F6
:1000A000F2020C94000085B1826085B985E08A95E2
:1000B000F1F7000085B18D7F85B90895CF93C82FE2
:1000C000662321F085B1816085B903C085B18E7F3B
:1000D00085B98AB180618AB98AB180628AB98AB1E8
:1000E00080648AB98AB180688AB98BB18F778BB9FD
:1000F0008BB18F7B8BB98BB18F7D8BB98BB18F7EA1
:100100008BB9CC231CF48BB180688BB9C6FF03C0BC
:100110008BB180648BB9C5FF03C08BB180628BB992
:10012000C4FF03C08BB180618BB90E9453008BB1B7
:100130008F778BB98BB18F7B8BB98BB18F7D8BB95F
:100140008BB18F7E8BB9C3FF03C08BB180688BB935
:10015000C2FF03C08BB180648BB9C1FF03C08BB1F8
:1001600080628BB9C0FF03C08BB180618BB90E94E4
:1001700053008BB180618BB98BB180628BB98BB12D
:1001800080648BB98BB180688BB987EB9BE001975A
:10019000F1F700C00000CF91089560E00E945E007A
:1001A000089561E00E945E000895611104C08058C6
:1001B0000E94CD00089580540E94CD00089581E0F2
:1001C0000E94CD00089561E00E945E000895CF93E3
:1001D000DF93FC0103C00E94E300FE01EF012196C2
:1001E00080818111F8CFDF91CF910895CF93C82FEF
:1001F00084B1816084B98AB180628AB984B1826035
:1002000084B98AB180618AB98AB180628AB98AB1B7
:1002100080648AB98AB180688AB98FEF99EF0197B3
:10022000F1F700C000008BB180628BB98BB18061A7
:100230008BB90E9453008FE19EE40197F1F700C053
:1002400000000E9453008FEF90E00197F1F700C08B
:1002500000000E9453008FEF90E00197F1F700C07B
:1002600000008BB18F7E8BB90E9453008FEF90E01E
:100270000197F1F700C0000088E20E94CD0088E0FD
:100280000E94CD000E94DF0086E00E94CD008C2FEE
:100290000E94CD00CF9108958CE00E94F60080E48A
:1002A0000E94CD00C0E008C0EC2FF0E0EF5FFE4FF1
:1002B00080810E94D100CF5FC833B0F380E80E94F4
:1002C000CD0080E00E94E30061E080E00E94D50064
:1002D00081E00E94E30060E081E00E94D50089E3B4
:1002E00091E00E94E70060E08BE00E94D50081E68B
:1002F0000E94E30061E081E00E94D50082E60E9456
:10030000E30061E08BE00E94D50083E60E94E300F9
:10031000E1E8F0E08081897F808380818160808353
:10032000EFE6F0E080818160808385B5897F85BDBF
:1003300085B5816085BDEEE6F0E0808181608083D7
:100340007894FFCF1F920F920FB60F9211242F9324
:100350003F934F935F936F937F938F939F93AF934D
:10036000BF93EF93FF93CF93DF93CDB7DEB726977D
:10037000DEBFCDBF80E290E29A8389839C838B832A
:100380009E838D83809154018F5F809354018831C7
:1003900008F483C010925401809153018F5F8093C1
:1003A00053018A3008F440C01092530180915201E9
:1003B0008F5F80935201889FC00111249093510157
:1003C0008093500160E08BE00E94D5008091500145
:1003D000909151010A9718F480E30E94E3004AE0EB
:1003E000BE016D5F7F4F80915001909151010E943D
:1003F000BD02CE0103960E94E700809152018C332A
:1004000098F01092520160E08BE00E94D50087E4E2
:1004100091E00E94E70080914F018F5F80934F0130
:10042000833610F010924F0160E087E00E94D50003
:1004300080915301805D0E94E30060E084E00E94AF
:10044000D500809152018A3018F480E30E94E300C5
:10045000809152014AE0BE016F5F7F4F90E00E94A1
:10046000BD02CE0101960E94E70060E081E00E949B
:10047000D50080914F018A3018F480E30E94E30098
:1004800080914F014AE0BE016F5F7F4F90E00E9474
:10049000BD02CE0101960E94E70026960FB6F894A1
:1004A000DEBF0FBECDBFDF91CF91FF91EF91BF9126
:1004B000AF919F918F917F916F915F914F913F91FC
:1004C0002F910F900FBE0F901F9018951F920F92B3
:1004D0000FB60F9211242F933F934F935F936F9317
:1004E0007F938F939F93AF93BF93EF93FF938091ED
:1004F0004D0190914E01019690934E0180934D01D4
:10050000883E934048F110924E0110924D01809127
:1005100000018F5F809300018730A0F082E080931C
:10052000000180914C018F5F80934C01893050F025
:1005300010924C0161E081E00E94D50081E491E0DD
:100540000E94E70080914C0161E08F5F0E94D5001E
:10055000809100010E94E300FF91EF91BF91AF9164
:100560009F918F917F916F915F914F913F912F91CB
:100570000F900FBE0F901F901895BB274A3031F493
:10058000992322F4BDE2909581959F4F0C94C90266
:10059000BB27FB015527AA27880F991FAA1FA4175D
:1005A00010F0A41B83955051B9F7A05DAA3308F051
:1005B000A95DA193009779F7B111B1931192CB0185
:1005C0000C94E202DC01FC01672F71917723E1F7C3
:1005D000329704C07C916D9370836291AE17BF0710
:0805E000C8F30895F894FFCF61
:1005E80002070E1C181C0E07031C0E0703070E1C1F
:1005F80018101010101010101018181818181818B3
:10060800181C1C1C1C1C1C1C1C1E1E1E1E1E1E1E18
:100618001E1F1F1F1F1F1F1F1F30303A30302E3064
:0C062800002020202020202020200000A6
:00000001FF
