S00E000030362D6C63642E7372656350
S11300000C9434000C9451000C9451000C94510045
S11300100C9451000C9451000C9451000C94510018
S11300200C9451000C9451000C9451000C94510008
S11300300C9451000C94D1010C9451000C94510077
S11300400C949F020C9451000C9451000C94510098
S11300500C9451000C9451000C9451000C945100D8
S11300600C9451000C94510011241FBECFEFD8E022
S1130070DEBFCDBF11E0A0E0B1E0EAE5F6E002C0EA
S113008005900D92AC34B107D9F721E0ACE4B1E0AE
S113009001C01D92A535B207E1F70E9471010C94CD
S11300A02B030C940000FC01408121E030E002C0ED
S11300B0220F331F6A95E2F7242B20830895FC0155
S11300C0908121E030E002C0220F331F6A95E2F7ED
S11300D02095292320830895FC01408121E030E00C
S11300E002C0220F331F6A95E2F7242B2083089560
S11300F085B1826085B985E08A95F1F7000085B104
S11301008D7F85B90895CF93C82F662321F085B1DB
S1130110816085B903C085B18E7F85B98AB180615C
S11301208AB98AB180628AB98AB180648AB98AB18B
S113013080688AB98BB18F778BB98BB18F7B8BB980
S11301408BB18F7D8BB98BB18F7E8BB9CC231CF493
S11301508BB180688BB9C6FF03C08BB180648BB947
S1130160C5FF03C08BB180628BB9C4FF03C08BB1E0
S113017080618BB90E9478008BB18F778BB98BB17A
S11301808F7B8BB98BB18F7D8BB98BB18F7E8BB904
S1130190C3FF03C08BB180688BB9C2FF03C08BB1AE
S11301A080648BB9C1FF03C08BB180628BB9C0FF7F
S11301B003C08BB180618BB90E9478008BB18061E0
S11301C08BB98BB180628BB98BB180648BB98BB1E5
S11301D080688BB987EB9BE00197F1F700C00000C2
S11301E0CF91089560E00E948300089561E00E9429
S11301F083000895611104C080580E94F20008959C
S113020080540E94F200089581E00E94F200089553
S113021061E00E9483000895CF93DF93FC0103C043
S11302200E940801FE01EF01219680818111F8CF1F
S1130230DF91CF910895CF93C82F84B1816084B9A1
S11302408AB180628AB984B1826084B98AB18061DA
S11302508AB98AB180628AB98AB180648AB98AB15A
S113026080688AB98FEF99EF0197F1F700C0000019
S11302708BB180628BB98BB180618BB90E9478009D
S11302808FE19EE40197F1F700C000000E9478001E
S11302908FEF90E00197F1F700C000000E94780012
S11302A08FEF90E00197F1F700C000008BB18F7ED3
S11302B08BB90E9478008FEF90E00197F1F700C0AE
S11302C0000088E20E94F20088E00E94F2000E948E
S11302D0040186E00E94F2008C2F0E94F200CF916C
S11302E008958CE00E941B0180E40E94F200C0E0AB
S11302F008C0EC2FF0E0EF5FFE4F80810E94F60013
S1130300CF5FC833B0F380E80E94F20065E084E276
S113031090E00E94530065E085E290E00E946C004A
S113032080E00E94080161E080E00E94FA0081E020
S11303300E94080160E081E00E94FA0089E391E0F4
S11303400E940C0160E08BE00E94FA0081E60E94AA
S1130350080161E081E00E94FA0082E60E9408013F
S113036061E08BE00E94FA0083E60E940801E1E864
S1130370F0E08081897F8083808181608083EFE6E3
S1130380F0E080818160808385B5897F85BD85B5F6
S1130390816085BDEEE6F0E08081816080837894A1
S11303A0FFCF1F920F920FB60F9211242F933F93FA
S11303B04F935F936F937F938F939F93AF93BF9369
S11303C0EF93FF93CF93DF93CDB7DEB72697DEBFCE
S11303D0CDBF80E290E29A8389839C838B839E8342
S11303E08D83809154018F5F80935401883108F488
S11303F08DC010925401809153018F5F80935301FB
S11304008A3008F44AC065E085E290E00E945F000B
S113041010925301809152018F5F80935201889F03
S1130420C0011124909351018093500160E08BE04E
S11304300E94FA0080915001909151010A9718F49A
S113044080E30E9408014AE0BE016D5F7F4F809106
S11304505001909151010E94F602CE0103960E9430
S11304600C01809152018C33C0F065E085E290E08C
S11304700E946C001092520160E08BE00E94FA002E
S113048087E491E00E940C0180914F018F5F80937B
S11304904F01833610F010924F0160E087E00E9414
S11304A0FA0080915301805D0E94080160E084E0BD
S11304B00E94FA00809152018A3018F480E30E946D
S11304C00801809152014AE0BE016F5F7F4F90E0C6
S11304D00E94F602CE0101960E940C0160E081E0C8
S11304E00E94FA0080914F018A3018F480E30E9440
S11304F0080180914F014AE0BE016F5F7F4F90E099
S11305000E94F602CE0101960E940C0126960FB6B7
S1130510F894DEBF0FBECDBFDF91CF91FF91EF9175
S1130520BF91AF919F918F917F916F915F914F9107
S11305303F912F910F900FBE0F901F9018951F920F
S11305400F920FB60F9211242F933F934F935F9303
S11305506F937F938F939F93AF93BF93EF93FF9387
S113056080914D0190914E01019690934E0180939C
S11305704D01883E934048F110924E0110924D0176
S1130580809100018F5F809300018730A0F082E0AA
S11305908093000180914C018F5F80934C018930DE
S11305A050F010924C0161E081E00E94FA0081E475
S11305B091E00E940C0180914C0161E08F5F0E94E8
S11305C0FA00809100010E940801FF91EF91BF9110
S11305D0AF919F918F917F916F915F914F913F91D7
S11305E02F910F900FBE0F901F901895BB274A3084
S11305F031F4992322F4BDE2909581959F4F0C9498
S11306000203BB27FB015527AA27880F991FAA1F9E
S1130610A41710F0A41B83955051B9F7A05DAA3319
S113062008F0A95DA193009779F7B111B1931192E4
S1130630CB010C941B03DC01FC01672F7191772320
S1130640E1F7329704C07C916D9370836291AE1789
S10D0650BF07C8F30895F894FFCF24
S113065A02070E1C181C0E07031C0E0703070E1CA8
S113066A181010101010101010181818181818183C
S113067A181C1C1C1C1C1C1C1C1E1E1E1E1E1E1EA2
S113068A1E1F1F1F1F1F1F1F1F30303A30302E30EE
S10F069A00202020202020202020000030
S9030000FC
