:100000000C9434000C943E000C943E000C943E0082
:100010000C943E000C943E000C943E000C943E0068
:100020000C943E000C943E000C943E000C943E0058
:100030000C943E000C943E000C943E000C943E0048
:100040000C943E000C943E000C943E000C943E0038
:100050000C943E000C943E000C943E000C943E0028
:100060000C943E000C943E0011241FBECFEFD8E04C
:10007000DEBFCDBF0E9440000C946F000C940000C6
:1000800084B1806284B985B18F7D85B921E030E08B
:100090002115310581F04FEF83ED90E34150804011
:1000A0009040E1F700C0000081E0232B09F080E0E0
:1000B000282F30E00FC04FEF87EA91E64150804093
:1000C0009040E1F700C0000081E0232B09F080E0C0
:1000D000282F30E095B180E2892785B9D9CFF894EF
:0200E000FFCF50
:00000001FF
