S01000004750494F5F4C45442E73726563B1
S11300000C9434000C943E000C943E000C943E007E
S11300100C943E000C943E000C943E000C943E0064
S11300200C943E000C943E000C943E000C943E0054
S11300300C943E000C943E000C943E000C943E0044
S11300400C943E000C943E000C943E000C943E0034
S11300500C943E000C943E000C943E000C943E0024
S11300600C943E000C943E0011241FBECFEFD8E048
S1130070DEBFCDBF0E9459000C946D000C940000AB
S1130080FC01408121E030E002C0220F331F6A9559
S1130090E2F7242B20830895FC01908121E030E0D5
S11300A002C0220F331F6A95E2F72095292320838B
S11300B0089565E084E290E00E94400065E085E2F6
S11300C090E00E944C002FEF89E698E12150804097
S11100D09040E1F700C00000F6CFF894FFCF97
S9030000FC
