S01000004750494F5F4C45442E73726563B1
S11300000C9434000C943E000C943E000C943E007E
S11300100C943E000C943E000C943E000C943E0064
S11300200C943E000C943E000C943E000C943E0054
S11300300C943E000C943E000C943E000C943E0044
S11300400C943E000C943E000C943E000C943E0034
S11300500C943E000C943E000C943E000C943E0024
S11300600C943E000C943E0011241FBECFEFD8E048
S1130070DEBFCDBF0E9489000C94E2000C94000006
S1130080FC01408121E030E002C0220F331F6A9559
S1130090E2F7242B20830895FC01808121E030E0E5
S11300A002C0220F331F6A95E2F7922F909589239D
S11300B080838181282B21830895FC01908121E094
S11300C030E002C0220F331F6A95E2F720952923FE
S11300D020830895FC01408121E030E002C0220F1A
S11300E0331F6A95E2F7242B20830895FC01808155
S11300F021E030E002C0220F331F6A95E2F790E05E
S1130100822393232817390711F480E0089581E0AE
S1130110089565E084E290E00E94400065E085E295
S113012090E00E945D0064E087E290E00E9440005D
S113013064E088E290E00E946A0062E08AE290E073
S11301400E944C0062E089E290E00E9476008823DD
S1130150C9F32FEF89E698E1215080409040E1F700
S113016000C0000064E088E290E00E945D002FEF90
S113017089E698E1215080409040E1F700C00000FA
S113018064E088E290E00E946A002FEF89E698E13B
S1130190215080409040E1F700C0000065E085E216
S11301A090E00E946A002FEF89E698E12150804098
S11301B09040E1F700C0000065E085E290E00E9415
S10B01C05D00C0CFF894FFCFED
S9030000FC
