S01500006C6564496E74657272757074732E737265639A
S11300000C9434000C9451000C9451000C94510045
S11300100C9451000C9451000C9451000C94510018
S11300200C9451000C9451000C9451000C94510008
S11300300C9451000C94C3000C9451000C94510086
S11300400C9451000C9451000C9451000C945100E8
S11300500C9451000C9451000C9451000C945100D8
S11300600C9451000C94510011241FBECFEFD8E022
S1130070DEBFCDBF11E0A0E0B1E0E4EDF2E002C0EC
S113008005900D92A230B107D9F721E0A2E0B1E0CA
S113009001C01D92A430B207E1F70E9477000C94CE
S11300A068010C940000FC01408121E030E002C0B2
S11300B0220F331F6A95E2F7242B20830895FC0155
S11300C0408121E030E002C0220F331F6A95E2F73D
S11300D0242B20830895FC01408121E030E002C0FC
S11300E0220F331F6A95E2F724272083089565E0E1
S11300F084E290E00E94530064E084E290E00E9475
S1130100530063E084E290E00E94530062E084E2E2
S113011090E00E94530065E085E290E00E945F0059
S113012064E085E290E00E945F0063E085E290E095
S11301300E945F0062E085E290E00E945F00E1E8D7
S1130140F0E080818B7F8083808183608083EFE611
S1130150F0E08081816080837894FFCF65E085E260
S113016090E00E945F0064E085E290E00E945F00FE
S113017063E085E290E00E945F0062E085E290E047
S11301800E945F0008951F920F920FB60F921124E0
S11301902F933F934F935F936F937F938F939F938B
S11301A0AF93BF93EF93FF9320910201309103012A
S11301B0C90163E070E00E944001892B51F48091F1
S11301C000019091010141E0842790930101809303
S11301D000018091000190910101892B39F0215097
S11301E03109309303012093020106C02F5F3F4F72
S11301F03093030120930201809102019091030145
S11302008130910591F01CF4892B39F026C082309D
S1130210910599F00397C9F020C00E94AE0065E0F3
S113022085E290E00E946B001AC00E94AE0064E078
S113023085E290E00E946B0012C00E94AE0063E071
S113024085E290E00E946B000AC00E94AE0062E06A
S113025085E290E00E946B0002C00E94AE00FF9114
S1130260EF91BF91AF919F918F917F916F915F912A
S11302704F913F912F910F900FBE0F901F901895A3
S113028097FB072E16F4009407D077FD09D00E943F
S1130290540107FC05D03EF4909581959F4F089535
S11302A0709561957F4F0895AA1BBB1B51E107C050
S11302B0AA1FBB1FA617B70710F0A61BB70B881FF2
S11302C0991F5A95A9F780959095BC01CD01089581
S10702D0F894FFCFCC
S10502D4010023
S9030000FC
