S00E000030382D6932632E7372656383
S11300000C9434000C9451000C9451000C94510045
S11300100C9451000C9451000C9451000C94510018
S11300200C9451000C9451000C9451000C94510008
S11300300C9451000C94E4000C9451000C94510065
S11300400C946C000C9451000C9465010C94930175
S11300500C9451000C9451000C9451000C945100D8
S11300600C9451000C94510011241FBECFEFD8E022
S1130070DEBFCDBF11E0A0E0B1E0E2E6F4E002C0F3
S113008005900D92A432B107D9F721E0A4E2B1E0C2
S113009001C01D92AA36B207E1F70E9453000C94E6
S11300A02F020C9400000E94210187E690E00E9438
S11300B0BD01E1E8F0E080818C7F808380818460F1
S11300C08083EFE6F0E0808181608083789485E02E
S11300D091E00E94ED01FFCF1F920F920FB60F9295
S11300E011241F932F933F934F935F936F937F93A9
S11300F08F939F93AF93BF93EF93FF93CF93DF932C
S113010000D0CDB7DEB780E390E39A8389838091F2
S113011004018230A9F0833029F18130E1F5809126
S1130120030191E0980F909303018750803720F4E6
S113013082E08093040132C087E0809303012EC0E3
S113014080910301880F0E943001182F0E946101E1
S1130150112321F081E08093040120C083E0809387
S113016004011CC08BE191E00E94ED018091030128
S113017040E1BE016F5F7F4F90E00E94FA01CE0123
S113018001960E94ED0189E191E00E94ED0181E078
S11301908093040103C081E0809304010F900F90C9
S11301A0DF91CF91FF91EF91BF91AF919F918F918B
S11301B07F916F915F914F913F912F911F910F907C
S11301C00FBE0F901F9018951F920F920FB60F92AB
S11301D011242F933F934F935F936F937F938F9348
S11301E09F93AF93BF93EF93FF9388EB0E943001EB
S11301F082E00E944D010E94610189EB0E9430015E
S11302000E945701809324010E946101809124017E
S11302104AE060E071E090E00E94FA010E94ED0182
S1130220FF91EF91BF91AF919F918F917F916F91CA
S11302305F914F913F912F910F900FBE0F901F90A0
S1130240189587B18F7C87B988B1806388B9E9EB49
S1130250F0E080818C7F808388E98093B8000895E2
S113026094EA9093BC009091BC009923E4F78093A6
S1130270BB0084E88093BC008091BC008823E4F731
S11302808091B900887F883121F0803421F480E0A6
S1130290089580E0089581E008958093BB0084E888
S11302A08093BC008091BC008823E4F7089584EC1B
S11302B08093BC008091BC008823E4F78091BB004C
S11302C0089584E98093BC0008951F920F920FB69D
S11302D00F9211242F938F939F93EF93FF93809109
S11302E0C0002091C6008C71E0912701EF5FEF718F
S11302F090912601E91739F0E0932701F0E0E65DDB
S1130300FE4F208301C082E090912501892B8093C8
S11303102501FF91EF919F918F912F910F900FBE27
S11303200F901F9018951F920F920FB60F921124E1
S11303308F939F93EF93FF939091290180912801CC
S1130340981769F0E0912801EF5FEF71E0932801BD
S1130350F0E0E65BFE4F80818093C60005C0E1ECCF
S1130360F0E080818F7D8083FF91EF919F918F9149
S11303700F900FBE0F901F901895109229011092A4
S113038028011092270110922601282F392F332398
S11303901CF422E02093C00090789093C5008093D1
S11303A0C40088E98093C10086E08093C200089568
S11303B0209129012F5F2F71909128012917E1F3D2
S11303C0E22FF0E0E65BFE4F808320932901E1EC0D
S11303D0F0E08081806280830895CF93DF93EC0105
S11303E003C021960E94D80188818111FACFDF9140
S11303F0CF910895BB274A3031F4992322F4BDE20A
S1130400909581959F4F0C940602BB27FB015527BD
S1130410AA27880F991FAA1FA41710F0A41B83955D
S11304205051B9F7A05DAA3308F0A95DA1930097D4
S113043079F7B111B1931192CB010C941F02DC0135
S1130440FC01672F71917723E1F7329704C07C9107
S11304506D9370836291AE17BF07C8F30895F89443
S1050460FFCFC8
S11304623030300701496E697469616C697A696E6A
S1130472672073656E736F723A0A00616464726511
S107048273733A0052
S9030000FC
