S00E000030382D6932632E7372656383
S11300000C9434000C9451000C9451000C94510045
S11300100C9451000C9451000C9451000C94510018
S11300200C9451000C9451000C9451000C94510008
S11300300C9451000C946C000C9451000C945100DD
S11300400C947D010C9451000C94FE010C942B0231
S11300500C9451000C9451000C9451000C945100D8
S11300600C9451000C94510011241FBECFEFD8E022
S1130070DEBFCDBF11E0A0E0B1E0EEE8F5E002C0E4
S113008005900D92A63AB107D9F723E0A6EAB1E0AC
S113009001C01D92AF3AB207E1F70E9453000C94DD
S11300A0C5020C9400000E94BA0183E390E00E9410
S11300B05402E1E8F0E080818A7F8083808182605D
S11300C08083EFE6F0E0808181608083789485E02E
S11300D091E00E948302FFCF1F920F920FB60F92FE
S11300E011240F931F932F933F934F935F936F9319
S11300F07F938F939F93AF93BF93EF93FF93CF938C
S1130100DF9300D0CDB7DEB780E390E39A83898391
S11301108091A90181112EC089E291E00E9483029D
S113012000E010E015C080E391E00E94830240E10A
S1130130BE016F5F7F4FC8010E949002CE010196FD
S11301400E9483028EE291E00E9483020F5F1F4FA0
S11301500031110544F384E291E00E94830282E3BA
S113016091E00E94830281E09091A901911180E0C5
S11301708093A90180910401823009F469C018F4C4
S1130180813041F0A0C0833009F478C0843009F490
S11301908DC099C08091030191E0980F9093030161
S11301A08750803720F482E08093040126C087E0E2
S11301B08093030181E591E00E94830289E691E046
S11301C00E9483028091A8014AE0BE016F5F7F4FC5
S11301D090E00E9490020E9483028AE891E00E94CB
S11301E0830284E0809304011092A80181E090913D
S11301F0A901911180E08093A901809103018F707E
S113020009F064C08091A7018F5F8093A7018830B3
S113021018F081E08093A70184E291E00E948302B8
S113022083E991E00E9483028091A7014AE0BE0124
S11302306F5F7F4F90E00E9490020E94830286E9E4
S113024091E00E9483028EE291E00E9483023EC00C
S113025080910301880F0E94C901182F0E94FA019E
S1130260112341F081E08093040189E991E00E9427
S113027083022CC083E08093040128C08091030191
S113028040E1BE016F5F7F4F90E00E9490020E94A8
S113029083028EE291E00E9483028091A8018F5F25
S11302A08093A80181E08093040110C02FEF83E2C2
S11302B094EF215080409040E1F700C000008DE9A8
S11302C091E00E94830281E0809304010F900F90DB
S11302D0DF91CF91FF91EF91BF91AF919F918F915A
S11302E07F916F915F914F913F912F911F910F914A
S11302F00F900FBE0F901F9018951F920F920FB67C
S11303000F9211242F933F934F935F936F937F9397
S11303108F939F93AF93BF93EF93FF9388EB0E94C8
S1130320C90182E00E94E6010E94FA0189EB0E9461
S1130330C9010E94F0018093A6010E94FA018091F4
S1130340A6014AE060E071E090E00E9490020E9401
S11303508302FF91EF91BF91AF919F918F917F9114
S11303606F915F914F913F912F910F900FBE0F901E
S11303701F90189587B18F7C87B988B1806388B93D
S1130380E9EBF0E080818C7F808388E48093B8007F
S1130390089594EA9093BC009091BC009923E4F7EB
S11303A08093BB0084E88093BC008091BC008823C8
S11303B0E4F78091B900887F883121F0803421F4FA
S11303C080E0089580E0089581E008958093BB0063
S11303D084E88093BC008091BC008823E4F70895EE
S11303E084EC8093BC008091BC008823E4F7809166
S11303F0BB00089584E98093BC0008951F920F9276
S11304000FB60F9211242F938F939F93EF93FF9323
S11304108091C0002091C6008C71E091AC01EF5F27
S11304209091AB01E91739F0E093AC01F0E0E155AC
S1130430FE4F208301C082E09091AA01892B809312
S1130440AA01FF91EF919F918F912F910F900FBE71
S11304500F901F9018951F920F920FB60F921124B0
S11304608F939F93EF93FF939091AE018091AD0191
S1130470981761F0E091AD01EF5FE093AD01F0E01A
S1130480E155FD4F80818093C60005C0E1ECF0E0AA
S113049080818F7D8083FF91EF919F918F910F9049
S11304A00FBE0F901F9018951092AE011092AD01DF
S11304B01092AC011092AB01282F392F33231CF476
S11304C022E02093C00090789093C5008093C400EC
S11304D088E98093C10086E08093C200089520914A
S11304E0AE012F5F9091AD012917E1F3E22FF0E007
S11304F0E155FD4F80832093AE01E1ECF0E0808173
S1130500806280830895CF93DF93EC0103C021962A
S11305100E946F0288818111FACFDF91CF910895F3
S1130520BB274A3031F4992322F4BDE2909581959A
S11305309F4F0C949C02BB27FB015527AA27880FC9
S1130540991FAA1FA41710F0A41B83955051B9F743
S1130550A05DAA3308F0A95DA193009779F7B111C2
S1130560B1931192CB010C94B502DC01FC01672F0D
S113057071917723E1F7329704C07C916D93708376
S11105806291AE17BF07C8F30895F894FFCF39
S113058E30303007015363616E204932432D62755A
S113059E7320666F7220736C61766520646576696C
S11305AE6365733A1B5B3145002020202020200018
S11305BE2E003078302E3A205241205241205241A2
S11305CE205241205241205241205241205241207A
S11305DE005241205241205241205241205241208A
S11305EE5241205241205241001B5B31454E756DE4
S11305FE626572206F662064657465637465642039
S113060E646576696365733A20001B5B31451B5B39
S113061E3145003078002E3A002D2D20001B5B3220
S109062E4A1B5B480000BA
S9030000FC
